:020000040800F2
:100000008044002015030008151B00080D1B000884
:10001000111B0008A10A00083B2300080000000093
:100020000000000000000000000000003D02000889
:10003000A50A00080000000091020008ED1B00085E
:100040002F0300082F0300082F0300082F030008C8
:100050002F0300082F0300082F0300082F030008B8
:100060002F0300082F0300082F0300082F030008A8
:100070002F0300082F0300082F0300082F03000898
:100080002F0300082F0300082F0300082F03000888
:100090002F0300082F0300082F0300082F03000878
:1000A0002F0300082F0300082F0300082F03000868
:1000B0002F03000800000000000000002F030008CC
:1000C0002F0300082F0300082F0300082F03000848
:1000D0002F0300082F0300082F0300082F03000838
:1000E0002F0300082F03000800000000000000009C
:1000F0000000000000000000000000000000000000
:10010000000000002F030008000000002F0300087B
:100110000000000000000000CD1C00082F030008B4
:100120002F0300082F0300082F0300082F030008E7
:100130002F03000800000000000000000000000085
:100140002F0300082F0300082F0300080000000001
:100150002F0300082F0300082F0300082F030008B7
:100160002F0300082F0300082F03000800000000E1
:100170002F0300082F03000800000000000000000B
:100180002F0300082F0300082F03000800F002F8D7
:1001900000F045F80AA090E8000C82448344AAF1DC
:1001A0000107DA4501D100F03AF8AFF2090EBAE8DA
:1001B0000F0013F0010F18BFFB1A43F0010318479B
:1001C000DC3C0000FC3C0000103A24BF78C878C139
:1001D000FAD8520724BF30C830C144BF04680C604D
:1001E000704700000023002400250026103A28BF95
:1001F00078C1FBD8520728BF30C148BF0B60704799
:10020000642900F07381002070471FB503F01CFEC5
:100210009DE8030000F000FB1FBD10B510BD00F00D
:10022000A1FB1146FFF7F1FF02F0E6F900F0D9FB60
:1002300003B4FFF7F2FF03BC02F081F82A4B196800
:10024000086800F056B880F30988BFF36F8F4FF04D
:10025000000080F311887047000000000648006825
:10026000006880F3088862B661B6BFF34F8FBFF3B2
:100270006F8F00DF00BF00BF08ED00E0DFF80C006B
:10028000016841F470010160704700BF88ED00E033
:10029000EFF30980BFF36F8F134B1A681EF0100F36
:1002A00008BF20ED108A20E9F04F106008B44FF02D
:1002B000500080F31188BFF34F8FBFF36F8F03F0AF
:1002C00051F84FF0000080F3118808BC19680868E5
:1002D00000F014B81EF0100F08BF00F014B880F33F
:1002E0000988BFF36F8F70470C000020EFF3058083
:1002F000704730C8B0E8C04FFFF7A5BF30C8B0E8BE
:10030000C04FFFF7E7BFB0EC088AB0EC08CAFFF7B0
:10031000E6BF00000948804709480047FEE7FEE7BE
:10032000FEE7FEE7FEE7FEE7FEE7FEE7FEE7FEE7A5
:1003300004480549054A064B704700007D1C00082B
:100340008D010008803E0020804400208040002075
:100350008040002070B5A0FB0140B4F1805170F1E5
:10036000000024BF002070BD204600F04BF90500BE
:100370001CBF214600F012FA284670BD53EA020C59
:1003800000F069802DE9F04B4FF00006002B1FBFF5
:10039000B3FA83F503FA05F424FA05F65E4012BFBA
:1003A0001643B2FA82F502FA05F4C5F120051EBF24
:1003B00022FA05FC44EA0C04203556EA044C4FEAC4
:1003C000144418BF641C4FF000084FF0000990421D
:1003D00071EB030C39D3002919BFB1FA81F701FA87
:1003E00007F6B0FA80F700FA07F6C7F120071EBF3C
:1003F00020FA07FC46EA0C062037B6FBF4FCA7EB14
:100400000507103F07F01F0BCBF120060CFA0BFB82
:100410002CFA06F644BFB3460026202FA4BF5E4642
:100420004FF0000B5BEA060C08BF4FF0010B19EB15
:100430000B09ABFB027C48EB0608C01B06FB02CC99
:100440000BFB03CC71EB0C01C1E70B4602464146A6
:100450004846BDE8F08B13B54FF000004FF00001A7
:10046000AFF30080BDE81C40704700000FB40449A2
:1004700010B503AA029800F04DF910BC5DF814FB0A
:10048000080000202DE9F0410E46044600202062BD
:100490002046E168884730B3252805D0D4E90121FA
:1004A0009047206A401CF2E7E16820460027884711
:1004B000050018D0A5F14100192802D820354FF4C5
:1004C00000673246294620462760FFF799FE40B173
:1004D000012804D0F61D26F007060836D8E7361D99
:1004E000D6E72846DAE7206ABDE8F0812DE9F04139
:1004F0000646002410687529314616A510D0AFF3C2
:100500000080002802DA404213A507E031688A071C
:1005100001D512A502E0490704D511A5012401E087
:10052000AFF3008000210A2206F1240709E0B0FBA6
:10053000F2FCB0FBF2F302FB1C003030785418469A
:10054000491C0028F3D123462A463046BDE8F04135
:1005500000F087B8000000002D0000002B00000014
:1005600020000000032A40F2308010F0030C00F05D
:10057000158011F8013BBCF1020F624498BF11F8DD
:1005800001CB00F8013B38BF11F8013BA2F1040296
:1005900098BF00F801CB38BF00F8013B11F003030E
:1005A00000F0CA80083AC0F0088051F8043B083ACD
:1005B00051F804CBA0E80810F5E7121D5CBF51F814
:1005C000043B40F8043BAFF30080D20724BF11F88E
:1005D000013B11F801CB48BF11F8012B24BF00F8F3
:1005E000013B00F801CB48BF00F8012B704702F037
:1005F000FF0343EA032242EA024200F0D1B8704707
:100600007047704770B5064600F0EAF8056806F1D5
:100610000B0020F00704B4429CBF002070BD2B46A5
:100620006A68BAB11068A04210D304F10801884288
:100630003CBF5068586007D3516810194160116879
:10064000091B016058601460101D70BD134652688C
:10065000002AE7D12146284600F0CAF80028DED15A
:1006600070BD2DE9F0470D4699469246044600F1CB
:1006700024080168880604D5E06921F01001216092
:1006800000E00120A84201DD471B00E00027A1692E
:100690007A1902EB0900081AA0612078C00602D47A
:1006A0002046AFF30080002608E0D4E901211AF8C3
:1006B00006009047206A401C761C20624E45F4DB01
:1006C0002078C0060AD52046AFF3008006E0D4E9C2
:1006D000012130209047206A401C2062381EA7F17B
:1006E0000107F4DC07E0D4E9012118F80500904780
:1006F000206A401C2062281EA5F10105F3DC20467B
:10070000AFF300802078000602D50220BDE8F08714
:100710000120FBE7074B70B50D467B4400F0DFF886
:100720000446284600F0EEF810B14FF0FF3070BDDF
:10073000204670BDBB1E000010B5203AC0F00B80F3
:10074000B1E81850203AA0E81850B1E81850A0E8D5
:100750001850BFF4F5AF5FEA027C24BFB1E818502F
:10076000A0E8185044BF18C918C0BDE810405FEA9F
:10077000827C24BF51F8043B40F8043B08BF70471B
:10078000D20728BF31F8023B48BF11F8012B28BF20
:1007900020F8023B48BF00F8012B70474FF00002E1
:1007A0000429C0F0128010F0030C00F0B180CCF1ED
:1007B000040CBCF1020F18BF00F8012BA8BF20F8F1
:1007C000022BA1EB0C0100F0A3B85FEAC17C24BFAF
:1007D00000F8012B00F8012B48BF00F8012B7047EF
:1007E00000487047243E00207047704770477047AC
:1007F00038B504460A4600206946AFF30080002859
:1008000008BF38BD02460099204600F0D0F801200C
:1008100038BD012000F0EEB8F8B5AFF30080054612
:1008200000200C46102000BF0646A819A0420DD992
:10083000324669460020AFF30080070008BF00F091
:10084000D9F80098A04218BF0546C419FFF7C8FFA1
:1008500005600746F01D20F007004619284600F005
:100860000AF8B44208BFF8BDA21B31463868BDE89B
:10087000F84000F09CB800210160C0E90110704709
:100880001020704770B50446051FFFF7A9FF0068E8
:10089000002C14BF446870BD002C18BFAC423CBF94
:1008A00020466468F8D301680A18AA4218BF456058
:1008B00003D12A6805461144016028684119A14204
:1008C0001CBF6C6070BD6168696021680844286065
:1008D00070BD000001694A1C02610878704700B5CC
:1008E0008FB0CDE901310021059105497944CDE969
:1008F000031011466846FFF7C5FD0FB000BD0000AC
:10090000E5FFFFFF007B00F0800070474FF0000222
:1009100000B5134694469646203922BFA0E80C50F5
:10092000A0E80C50B1F12001BFF4F7AF090728BFD0
:10093000A0E80C5048BF0CC05DF804EB890028BF4C
:1009400040F8042B08BF704748BF20F8022B11F075
:10095000804F18BF00F8012B704700000048704717
:100960001C3E00207546FFF7F9FFAE4605006946BC
:10097000534620F00700854618B020B5FFF7D8FC95
:10098000BDE820404FF000064FF000074FF0000890
:100990004FF0000B21F00701AC46ACE8C009ACE811
:1009A000C009ACE8C009ACE8C0098D4670470346F1
:1009B00040688C46002818BF88423CBF0346406808
:1009C000F8D318681844884207D00CF1030020F0CF
:1009D0000700001D411A521A0146081D0A60FFF760
:1009E00051BF10B50446AFF300802046BDE810406B
:1009F000FFF71EBC10B500F00BF8BDE8104000F08A
:100A000001B87047002801D001F099BC7047000080
:100A100010B5012805D0002103A000F021F8012025
:100A200010BD09A1F8E7000053494752544D454D08
:100A30003A204F7574206F662068656170206D657F
:100A40006D6F7279000000003A2048656170206D7A
:100A5000656D6F727920636F727275707465640072
:100A600070B505460C460A2000E06D1C00F011F838
:100A700035B128780028F8D102E0641C00F009F8AC
:100A800014B120780028F8D1BDE870400A20AFF3F7
:100A9000008008B569468DF800000320ABBE08BD94
:100AA00000BFFEE77047000078B503460022CBE0A8
:100AB000012696400D6805EA0604002C72D04D68A8
:100AC000022D02D04D68122D13D1D60803F1200556
:100AD00055F826005507EE0E0F25B540A8435607DA
:100AE000F60E0D69B5402843D60803F1200545F8F8
:100AF0002600186856000325B540A8430D7905F077
:100B000003055600B540284318604D68012D08D0F4
:100B10004D68022D05D04D68112D02D04D68122D63
:100B200013D1986856000325B540A8435600CD68F8
:100B3000B54028439860586801259540A8430D7931
:100B4000C5F30015954028435860D8685600032522
:100B5000B540A84356008D68B5402843D8604D681D
:100B600005F08055B5F1805F6DD100BF394D2D6E18
:100B700045F00105374E356635462D6E05F0010509
:100B8000009500BF00BF4FEAB635960855F826001D
:100B900095072E0F0F25B540A843B3F1904F02D112
:100BA000002515E04FE02C4DAB4201D101250FE0AF
:100BB0002A4DAB4201D102250AE0294DAB4201D1B9
:100BC000032505E0274DAB4201D1042500E00725B0
:100BD0009607360FB5402843234D960845F8260062
:100BE000224D2868A0434D6805F48035B5F5803F57
:100BF00000D120431D4D28602D1D2868A0434D685D
:100C000005F40035B5F5003F00D12043174D2D1DEB
:100C100028602D1D2868A0434D6805F48015B5F5A2
:100C2000801F00D12043114D083528602D1D2868F4
:100C3000A0434D6805F40015B5F5001F00D1204311
:100C40000A4D0C352860521C0D68D540002D7FF4EC
:100C50002FAF78BD00100240000400480008004893
:100C6000000C00480010004808000140000401404A
:100C70000148006870470000040000200248006836
:100C8000401C0149086070470400002010B5002492
:100C9000032000F0A5F80F2000F008F808B10124A7
:100CA00001E000F04DF8204610BD0000F0B587B01F
:100CB00005460026002700222946362000F04EF87F
:100CC000362000F03EF800BF1948806D40F010005B
:100CD000174988650846806D00F01000009000BF3D
:100CE00000BF01A902A800F053F9059E1EB900F04B
:100CF00077F9044602E000F073F944000D48B4FBB4
:100D0000F0F0471E0C480D49086040F2E7310B48EF
:100D1000C1604760002101618160816100F059FD7F
:100D200020B9064800F070FD07B0F0BD0120FBE7D8
:100D30000010024040420F000010004074000020EC
:100D4000704700BF00F01F0201219140420992004C
:100D500002F1E022C2F8001100BF70472DE9F05FF8
:100D600080460D461646002700F0D6FE0746394657
:100D70002A46334601F00700C0F1070ABAF1040F12
:100D800002D94FF0040A01E0C0F1070AD14600F190
:100D9000040ABAF1070F02D24FF0000A01E0A0F1F5
:100DA000030AD4464FF0010A0AFA09FAAAF1010A25
:100DB0000AEA020A0AFA0CFA4FF0010B0BFA0CFBD2
:100DC000ABF1010B0BEA030B4AEA0B042146404648
:100DD00000F0AAFE00F000B830BCBDE8C09F0000E3
:100DE00000BF00F00702064B19684FF6FF031940D9
:100DF000044B0B4343EA0221014B196000BF7047CB
:100E00000CED00E00000FA050248006800F4C06044
:100E100070470000007000402DE9F04104460D4687
:100E200014B90120BDE8F0815548006800F00700C2
:100E3000A8420ED25248006820F0070028435049CB
:100E400008600846006800F00700A84201D00120B1
:100E5000E8E7207800F00100002840D0606803280F
:100E600006D14848006800F00070D8B90120D9E7E1
:100E70006068022806D14348006800F4003088B951
:100E80000120CFE7606830B93E48006800F00200FA
:100E900040B90120C6E73B48006800F4806008B90B
:100EA0000120BFE73748806820F0030061680843ED
:100EB00034498860FFF7DCFE064608E0FFF7D8FEFD
:100EC000801B41F28831884201D90320AAE72D48CE
:100ED000806800F00C006168B0EB810FEED12078E3
:100EE00000F00200022807D12648806820F0F000B8
:100EF000A1680843234988602148006800F0070082
:100F0000A8420ED91E48006820F0070028431C495B
:100F100008600846006800F00700A84201D00120E0
:100F200080E7207800F00400042807D11548806885
:100F300020F4E060E168084312498860207800F0FE
:100F40000800082808D10F48806820F46050216903
:100F500040EAC1000B49886000F066F809498968D9
:100F6000C1F30311084A515C01F01F01C840074951
:100F700008600F20FFF79AFE0746384652E7000048
:100F80000020024000100240543E000800000020F3
:100F90000F2202600D4A926802F0030242600B4A7F
:100FA000926802F0F0028260084A926802F4E062FD
:100FB000C260064A926802F46052D2080261044A92
:100FC000126802F007020A60704700000010024039
:100FD0000020024001480068704700000000002027
:100FE00000B5FFF7F7FF05498968C1F30221044AFC
:100FF000515C01F01F01C84000BD0000001002401C
:10100000643E000800B5FFF7E5FF05498968C1F3B4
:10101000C221044A515C01F01F01C84000BD00001C
:1010200000100240643E00082DE9F0410024002039
:10103000DFF800C1DCF808C00CF00C01DFF8F4C0E8
:10104000DCF80CC00CF0030719B10C291ED1012FDC
:101050001CD1DFF8E0C0DCF800C00CF0080CBCF1DB
:10106000000F06D1DFF8CCC0DCF894C0CCF3032429
:1010700005E0DFF8C0C0DCF800C0CCF30314DFF8F3
:10108000B8C05CF8244041B9204606E0042901D1EB
:101090002A4802E0082900D129480C2947D1DFF865
:1010A00094C0DCF80CC00CF00305DFF888C0DCF855
:1010B0000CC0CCF3021C0CF10103012D1FD0022D3A
:1010C00002D0032D1AD10CE0DFF870C0BCFBF3FC9A
:1010D000DFF86080D8F80C80C8F306280CFB08F213
:1010E00018E0DFF85CC0BCFBF3FCDFF84880D8F800
:1010F0000C80C8F306280CFB08F20BE000BFB4FB21
:10110000F3FCDFF83080D8F80C80C8F306280CFB1D
:1011100008F200BF00BFDFF81CC0DCF80CC0CCF345
:10112000416C0CF1010C4FEA4C06B2FBF6F0BDE845
:10113000F0810000001002406C3E00080024F40022
:1011400000127A002DE9F843044614B90120BDE8E5
:10115000F883F848806800F00C06F648C06800F094
:101160000307207800F01000102875D11EB10C2E56
:1011700074D1012F72D1EF48006800F0020018B15D
:10118000A06908B90120E2E7EA48216A006800F096
:10119000080020B1E748006800F0F00005E0E548ED
:1011A0009430006800F47060000981421FD9206A01
:1011B00000F0CEFC08B10120C9E700BFDD4800689F
:1011C00040F00800DB4908600846006820F0F000A5
:1011D000216A0843D749086000BF0846406820F4E8
:1011E0007F40E16940EA0120D24948601EE000BF2B
:1011F000D048006840F00800CE4908600846006802
:1012000020F0F000216A0843CA49086000BF084680
:10121000406820F47F40E16940EA0120C549486008
:10122000206A00F095FC08B1012090E7FFF7FCFE72
:10123000C0498968C1F30311BF4A515C01F01F0125
:10124000C840BE4908600F20FFF730FD8046B8F166
:10125000000F4ED040467AE74BE0FFE7A06980B32D
:10126000B448006840F00100B2490860FFF700FD93
:10127000054606E0FFF7FCFC401B022801D90320CD
:1012800065E7AC48006800F002000028F2D000BF1B
:10129000A848006840F00800A649086008460068B1
:1012A00020F0F000216A0843A249086000BF084608
:1012B000406820F47F40E16940EA01209D49486090
:1012C00017E0FFE79B48006820F00100994908609B
:1012D000FFF7CEFC054606E0FFF7CAFC401B0228DC
:1012E00001D9032033E79348006800F0020000288A
:1012F000F2D1207800F0010000285CD0082E03D045
:101300000C2E0AD1032F08D18A48006800F400305F
:1013100088B3606878BB012019E700BF6068B0F54A
:10132000803F06D18348006840F4803081490860DE
:101330001AE06068B0F5A02F0BD17E48006840F439
:1013400080207C4908600846006840F480300860CE
:101350000AE07848006820F4803076490860084642
:10136000006820F48020086000BF606890B1FFF73B
:101370007FFC054607E01EE0FFF77AFC401B64286F
:1013800001D90320E3E66B48006800F40030002830
:10139000F2D010E0FFF76CFC054606E0FFF768FCB2
:1013A000401B642801D90320D1E66248006800F49C
:1013B00000300028F2D1207800F00200022852D13B
:1013C000042E03D00C2E14D1022F12D159480068DC
:1013D00000F4806018B1E06808B90120B7E655480C
:1013E000406820F0F850217C40EA01605149486093
:1013F00039E0E06800B34F48006840F480704D4920
:101400000860FFF735FC054606E0FFF731FC401B9E
:10141000022801D903209AE64648006800F480605B
:101420000028F2D04348406820F0F850217C40EA80
:1014300001604049486016E03E48006820F4807032
:101440003C490860FFF714FC054606E0FFF710FC76
:10145000401B022801D9032079E63648006800F4D1
:1014600080600028F2D1207800F00800082836D1EA
:101470006069D0B12F489430006840F001002D49D8
:10148000C1F89400FFF7F4FB054606E0FFF7F0FB18
:10149000401B022801D9032059E6264894300068F1
:1014A00000F002000028F1D019E0224894300068D2
:1014B00020F001001F49C1F89400FFF7D9FB054651
:1014C00006E0FFF7D5FB401B022801D903203EE6CA
:1014D00018489430006800F002000028F1D120780C
:1014E00000F00400042870D14FF000091148806D0D
:1014F00000F0805078B900BF0E48806D40F08050F9
:101500000C4988650846806D00F08050009000BF4F
:1015100000BF4FF001090A48006800F48070F0B97C
:101520000748006840F4807005490860FFF7A0FB99
:1015300005460EE000100240543E00080000002066
:1015400000700040FFF794FB401B022801D90320E4
:10155000FDE59B48006800F480700028F2D000BFD1
:10156000A068012808D19748006840F0010095491B
:101570009039C1F8900021E0A06805280FD191486A
:10158000006840F004008F499039C1F89000084687
:10159000D0F8900040F00100C1F890000EE08948BA
:1015A000006820F0010087499039C1F89000084692
:1015B000D0F8900020F00400C1F8900000BFA068AF
:1015C000A0B1FFF755FB054609E02EE0FFF750FB01
:1015D000401B41F28831884201D90320B7E57948A0
:1015E000006800F002000028F0D012E0FFF740FB96
:1015F000054608E0FFF73CFB401B41F2883188427A
:1016000001D90320A3E56F48006800F0020000281C
:10161000F0D1B9F1010F07D16A489038806D20F000
:10162000805068499039886500BF207800F020001C
:10163000202838D1606AD8B162480830006840F08C
:10164000010060499039C1F89800FFF711FB054689
:1016500006E0FFF70DFB401B022801D9032076E5C9
:1016600058480830006800F002000028F1D01AE065
:1016700054480830006820F0010052499039C1F800
:101680009800FFF7F5FA054606E0FFF7F1FA401B70
:10169000022801D903205AE54A480830006800F0C2
:1016A00002000028F1D1A06AF0B30C2E74D0A06A19
:1016B000022853D143489038006820F08070414997
:1016C00090390860FFF7D4FA054606E0FFF7D0FA34
:1016D000401B022801D9032039E53A4890380068B8
:1016E00000F000700028F1D1206B401E0101606BFA
:1016F00041EA0020E16A0843A18F0122C2EB5101B7
:1017000040EA41514020005DC2EB500041EA406197
:101710003820005D41EAC0602A499039C860084617
:10172000006840F0807000E048E008600846C0684B
:1017300040F08070C860FFF79BFA054606E0FFF7AF
:1017400097FA401B022801D9032000E51D48903874
:10175000006800F000700028F1D02FE019489038A0
:10176000006820F0807017499039086008460068CA
:1017700000F0006020B90846C06820F00300C8608F
:1017800010489038C068104908400E499039C86028
:10179000FFF76EFA054607E00EE0FFF769FA401B17
:1017A000022801D90320D2E406489038006800F0EE
:1017B00000700028F1D101E00120C8E40020C6E457
:1017C0000070004090100240FFFFEEFE704770472F
:1017D000704710B504460CB9012010BD94F83D00C7
:1017E00028B9002084F83C00204600F00CF80220C4
:1017F00084F83D00211D206800F070FA012084F873
:101800003D000020E9E7704701460868C06840F0E5
:1018100001000A68D060086880680B4A10400628FA
:1018200005D0086880681040B0F5803F01D10120E4
:1018300000E0002028B90868006840F001000A684C
:10184000106000207047000007000100704710B5CD
:10185000044620680069C0F34000D8B12068C06821
:10186000C0F34000B0B16FF00200216808610120B0
:1018700020772068806900F0030018B12046FFF748
:10188000E5FF05E0204600F0BEF8204600F0BCF879
:101890000020207720680069C0F38000D8B120685C
:1018A000C068C0F38000B0B16FF004002168086127
:1018B000022020772068806900F4407018B120462B
:1018C000FFF7C4FF05E0204600F09DF8204600F039
:1018D0009BF80020207720680069C0F3C000D8B1D1
:1018E0002068C068C0F3C000B0B16FF00800216884
:1018F0000861042020772068C06900F0030018B157
:101900002046FFF7A3FF05E0204600F07CF82046C4
:1019100000F07AF80020207720680069C0F30010FA
:10192000D8B12068C068C0F30010B0B16FF01000EB
:1019300021680861082020772068C06900F44070A1
:1019400018B12046FFF782FF05E0204600F05BF863
:10195000204600F059F8002020772068006900F048
:10196000010058B12068C06800F0010030B16FF08C
:10197000010021680861204600F047F820680069EE
:10198000C0F3C01058B12068C068C0F3C01030B1B7
:101990006FF08000216808612046FFF718FF20687B
:1019A0000069C0F3002058B12068C068C0F3C010BF
:1019B00030B16FF48070216808612046FFF706FFA0
:1019C00020680069C0F3801058B12068C068C0F377
:1019D000801030B16FF0400021680861204600F0AF
:1019E00019F820680069C0F3401058B12068C06839
:1019F000C0F3401030B16FF020002168086120462C
:101A0000FFF7E6FE10BD7047704710B50446FFF7BC
:101A100035F910BD704710B504460CB9012010BD52
:101A2000A06900B100E000BF94F8710028B900205F
:101A300084F87000204600F02BF8242084F8710010
:101A40002068006820F0010021680860204600F04E
:101A500035FA012800D1E2E7606A10B1204600F0B3
:101A600077F92068406820F4904021684860206839
:101A7000806820F02A00216888602068006840F0B3
:101A8000010021680860204600F0DEF9C7E7000089
:101A900010B586B004461A49206888422ED100BF8E
:101AA0001848C06C40F002001649C8640846C06C73
:101AB00000F00200009000BF00BF00BF0846006EAB
:101AC00040F4804008660846006E00F480400090B4
:101AD00000BF00BF4020019002200290012003902F
:101AE000022004900720059001A90748FEF7DCFFBB
:101AF0008020019001A90448FEF7D6FF06B010BD72
:101B000000380140001002400004004800BFFEE71A
:101B100000BFFEE77047000002480068C0F30220E3
:101B2000704700000CED00E010B5002807DA0A0746
:101B3000140E054A00F00F031B1FD45403E00A07DC
:101B4000130E024A135410BD18ED00E000E400E04B
:101B5000F8B5044600262348806D00F0805018B187
:101B6000FFF752F9054616E000BF1E48806D40F0B1
:101B700080501C4988650846806D00F080500090B8
:101B800000BF00BFFFF740F905461648806D20F002
:101B9000805014498865B5F5007F07D1802C10D995
:101BA000A02C01D902260CE001260AE0802C01D9E4
:101BB000032606E0802C01D1022602E0702C00D121
:101BC00001260948006820F00700304306490860F4
:101BD0000846006800F00700B04201D00120F8BDBF
:101BE0000020FCE7001002400020024010B500BFBA
:101BF000502080F31188BFF34F8FBFF36F8F00BF6A
:101C000001F04CFF18B14FF080500449086000BF4C
:101C1000002080F3118800BF10BD000004ED00E03B
:101C200000B597B010200190012007906020099026
:101C30000020089002200B9001210C910D91282189
:101C40000E910221119107210F910421109101A8F9
:101C5000FFF778FA08B100BFFEE70F2012900320CB
:101C600013900020149015901690042112A8FFF7ED
:101C7000D3F808B100BFFEE717B000BD10480068F8
:101C800040F470000E4908600E48006840F0010002
:101C90000C49086000208860084600680A4908402E
:101CA000084908608814C8600846006820F480204D
:101CB000086000208861C8030149803908607047C6
:101CC00088ED00E000100240FFFFF6EA10B5024880
:101CD000FFF7BDFD10BD00007400002010B50268C4
:101CE000184B984202D0B0F1804F03D122F070021D
:101CF0004B681A43134B984208D0B0F1804F05D07F
:101D0000114B984202D0114B984203D122F44072F9
:101D1000CB681A4322F080034C6943EA0402026054
:101D20008B68C3620B688362064B984205D0064BF2
:101D3000984202D0054B984201D10B6903630123FD
:101D4000436110BD002C01400040014000440140AF
:101D500090F8241001F0010139B10168496821F4BB
:101D60000031826A11430268516090F8241001F03A
:101D70000201022907D10168496821F48031C26A51
:101D800011430268516090F8241001F00401042905
:101D900007D10168496821F48021026B1143026870
:101DA000516090F8241001F00801082907D101685A
:101DB000496821F40041426B11430268516090F878
:101DC000241001F01001102907D10168896821F45D
:101DD0008051826B11430268916090F8241001F0E9
:101DE0002001202907D10168896821F40051C26BC4
:101DF00011430268916090F8241001F040014029DD
:101E000013D10168496821F48011026C1143026802
:101E10005160016CB1F5801F07D10168496821F458
:101E2000C001426C11430268516090F8241001F027
:101E30008001802907D10168496821F40021826C62
:101E4000114302685160704738B5044600250020F0
:101E50006067FEF70DFF05462068006800F0080087
:101E600008280CD16FF07E402B4600224FF4001161
:101E70000090204600F02BFA08B1032038BD2068FE
:101E8000006800F0040004280CD16FF07E402B465F
:101E900000224FF480010090204600F018FA08B1AB
:101EA0000320EBE7202084F8710084F8720000BF63
:101EB000002084F8700000BF00BFDFE72DE9F84F75
:101EC00004464FF0000910264FF0000B00250020BB
:101ED00000908246F3492068884200D100E000BFAC
:101EE0002169A068084361690843E16940EA010982
:101EF00020680068EC49084040EA09002168086051
:101F00002068406820F44050E16808432168486038
:101F1000D4F81890E3492068884202D0206A40EA49
:101F200009092068806820F4306040EA09002168CF
:101F3000886000BFDD492068884216D1DC4800680F
:101F400000F0030030B1012808D0022804D0032893
:101F500008D105E0012607E0022605E0042603E09B
:101F6000082601E0102600BF53E0D24920688842CD
:101F700016D1CF48006800F00C0030B1042808D01A
:101F8000082804D00C2808D105E0002607E0022626
:101F900005E0042603E0082601E0102600BF38E033
:101FA000C5492068884216D1C148006800F0300059
:101FB00030B1102808D0202804D0302808D105E0FE
:101FC000002607E0022605E0042603E0082601E0DB
:101FD000102600BF1DE0B3492068884219D1B448DB
:101FE000006800F4406048B1B0F5806F0AD0B0F5E9
:101FF000006F05D0B0F5406F08D105E0002607E07E
:10200000022605E0042603E0082601E0102600BFB2
:1020100000BF00BFA3492068884272D1042E10D0AF
:1020200003DC3EB1022E13D108E0082E0DD0102E95
:102030000ED10EE0FEF7D4FF82460DE0DFF87CA261
:102040000AE0FEF7F1FF824606E04FF4004A03E0A3
:1020500000BF0120009000BF00BFBAF1000F0AD0FE
:10206000606800EB4000504503D8606800035045AD
:1020700002D2012000900FE1042E2ED003DC3EB1ED
:10208000022E51D118E0082E3CD0102E4CD14CE03D
:10209000FEF7A6FF4FF48071A0FB0130616849088C
:1020A0005F1840F10001D4F804C0624600233846AE
:1020B000FEF764F905463BE0D4F804C04FEA5C0043
:1020C00000217F4BC71841EB010862460B4638469A
:1020D0004146FEF753F905462AE0FEF7A5FF4FF407
:1020E0008071A0FB0130616849085F1840F1000170
:1020F000D4F804C0624600233846FEF73FF905468F
:1021000016E022E0D4F804C04FEA5C0000214FF44E
:102110000003C71841EB010862460B4638464146AA
:10212000FEF72CF9054603E000BF0120009000BF38
:1021300000BFB5F5407F05D3B5F5801F02D22068FA
:10214000C560A9E001200090A6E0E069B0F5004F6D
:1021500057D1042E28D005DC4EB1012E11D0022E0D
:1021600036D118E0082E29D0102E31D131E0FEF7FB
:1021700037FF4000616800EB5100B0FBF1F085B221
:102180002AE0FEF73FFF4000616800EB5100B0FB22
:10219000F1F085B220E04B49606801EB50006168C6
:1021A000B0FBF1F085B217E0FEF73EFF400061683A
:1021B00000EB5100B0FBF1F085B20DE04FF480313F
:1021C000606801EB50006168B0FBF1F085B203E09C
:1021D00000BF0120009000BF00BF102D0ED3B5F549
:1021E000803F0BD24FF6F07005EA000BC5F34200BA
:1021F0004BEA000B2068C0F80CB04DE001200090C5
:102200004AE0042E26D005DC4EB1012E10D0022E5D
:1022100033D116E0082E26D0102E2ED12EE0FEF758
:10222000DFFE616800EB5100B0FBF1F085B228E001
:10223000FEF7E8FE616800EB5100B0FBF1F085B2FB
:102240001FE01E49606801EB50006168B0FBF1F0CF
:1022500085B216E0FEF7E8FE616800EB5100B0FBC6
:10226000F1F085B20DE04FF40041606801EB5000E1
:102270006168B0FBF1F085B203E000BF012000907F
:1022800000BF00BF102D05D3B5F5803F02D22068F6
:10229000C56001E001200090002020666066009883
:1022A00000F012B800800040F369FFEF00380140F1
:1022B0008810024000440040004800400024F40020
:1022C000000024F40048E80118BCBDE8E08F2DE9C7
:1022D000F04104460D4617469846069E21E0701CC4
:1022E000F8B12EB1FEF7C4FCA0EB0800B04218D93B
:1022F0002068006820F4D070216808602068806839
:1023000020F0010021688860202084F8710084F8A2
:10231000720000BF002084F8700000BF0320BDE8F9
:10232000F0812068C0692840A84201D1012000E066
:102330000020B842D3D00020F1E700BFFEE700BF85
:102340007047024602B101B97047101D00E00068F5
:102350000368002BFBD1016000BFF5E7024602B124
:1023600001B97047104600E000680368002BFBD1FC
:10237000016000BFF5E7000010B50C210120FDF75A
:10238000E9FF0446024860600248A060204610BD94
:1023900099230008E523000810B5044601A0FEF7C4
:1023A00065F810BD20656E74657220636F6E74727F
:1023B0006F6C6C4163746976652066756E637469D1
:1023C0006F6E200D0A00000070B5054605B970BD9E
:1023D0006C6803E02846616888472468002CF9D1BE
:1023E00000BFF4E710B5044601A0FEF73FF810BDAA
:1023F00020656E74657220636F6E74726F6C6C44CE
:10240000656163746976652066756E6374696F6E65
:10241000200D0A0070B5054605B970BD6C6803E073
:102420002846A16888472468002CF9D100BFF4E74A
:1024300010B5044602E0044800F04AFD201EA4F155
:102440000104F8D110BD0000002D310110B5242188
:102450000120FDF77FFF04460748A0600748E060C1
:1024600007482061074860610748A0610748E061AC
:1024700007482062204610BD5D2300084323000862
:10248000992E0008B52E0008C9230008152400085D
:10249000E52600081CB504460CA0FDF7E7FF002266
:1024A0000621042001F042F81349086000F0ACFD59
:1024B0001248022123468022CDE9001010A11348C2
:1024C00001F0A8FA00F0CAFD1CBD000020656E7482
:1024D0006572206472697665725F7365727669638E
:1024E000655F6163746976652066756E6374696F94
:1024F0006E200D0A00000000700000206C0000201B
:102500007461736B5F7461736B000000DD2E0008F3
:1025100010B510210120FDF71DFF04462CB1044821
:1025200060600448A0600448E060204610BD0000E0
:10253000952400083D2500089D25000810B5044697
:1025400003A0FDF793FF0DA0FDF790FF10BD000065
:1025500020656E746572206472697665725F73655A
:1025600072766963655F6465616374697665206628
:10257000756E6374696F6E200D0A00002064656CCF
:10258000657465207461736B205461736B5F48617F
:102590006E646C6572200D0A000000007CB5044674
:1025A000002000900190A0680568207801280FD1D4
:1025B0002078ADF80000A8B2ADF80200BDF8000028
:1025C00030B100231A4669460248006801F008F954
:1025D0007CBD00007000002000BF054A1268D2696F
:1025E000C2F38012002AF8D0C2B2024B1A807047A0
:1025F000B400002028380140F8B5FEF747FBFFF78C
:102600000FFB00F0A1FCFFF721FF0446FFF780FF5E
:10261000064631462046A2689047FFF7ADFE0746C2
:1026200039462046E268904720462169884720467F
:10263000616988472046A16988472046E169884743
:102640000A20009004236A4601212046256AA847F3
:102650000098401C009004236A4601212046256A08
:10266000A8470098401C009004236A460121204698
:10267000256AA8470098401C009004236A4601215F
:102680002046256AA8470098401C009004236A460B
:1026900001212046256AA8470098401C0090042389
:1026A0006A4601212046256AA84706A0FDF7DEFEFE
:1026B0000520FFF7BDFE07A0FDF7D8FE00F006FEDF
:1026C0000020F8BD2064656C6179207374617274B8
:1026D0000D0A00002064656C617920656E640D0A46
:1026E000000000002DE9FE4305460E4617469846B9
:1026F0000DB900F011B88DF800600297CDF8048094
:102700002C6805E0E06810B16846E16888472468F5
:10271000002CF7D100BFECE706BCBDE8F883000051
:102720002DE9F04105460E461C4807681C48006824
:10273000001D00F01FFC50B91948006890F82C10DB
:102740000120884017490968814316480160681CC8
:1027500038B936B112480168091D134800F048FC29
:102760001AE07C190E4800684460BC4207D20C484D
:102770000168091D0D48006800F020FC0CE00848C5
:102780000168091D0A48006800F018FC0948006843
:10279000844201D207480460BDE8F0812000002097
:1027A0000C0000202400002008020020140000205B
:1027B000100000203C00002010B5044600F024FC6E
:1027C00024480068401C234908602348006840B939
:1027D000214804600846006801280DD100F09AF9EC
:1027E0000AE01E48006838B91B480068C06AE16A00
:1027F000884201D81848046019480068401C1849EC
:10280000086008460068606494F82C100120884035
:1028100014490968084313490860E16A01EB810122
:10282000114A02EB8100211D00F0E2FB00F016FCD2
:102830000A48006868B108480068C06AE16A8842CE
:1028400007D24FF0805009490860BFF34F8FBFF3A4
:102850006F8F10BD1C0000200C00002028000020FD
:1028600038000020240000202C01002004ED00E0AE
:1028700070B523E000F06EFD1348006808B9012030
:1028800000E00020054601F05DFABDB900F0BCFB98
:102890000D48C068C468201D00F06CFB0B48006840
:1028A000401E0A4908600A480068401E084908603E
:1028B00000F0D4FB204600F060F800BF0448006838
:1028C0000028D7D170BD0000F40100201C000020BA
:1028D0001800002070B504460D46206C70B1216CC4
:1028E000E0680844E0606168E068884201D32068DD
:1028F000E0602846226CE168FDF734FE70BD2DE9EA
:10290000F04104460F4615464FF00008A66B206CB8
:1029100040B9206860BB606801F064F9804600201F
:10292000606025E07DB93946226CA068FDF71AFE8B
:10293000216CA0680844A060D4E90110884217D334
:102940002068A06014E03946226CE068FDF70AFEBA
:10295000216CE068401AE0602168E068884203D298
:10296000216C6068401AE060022D01D106B1761E2C
:10297000701CA0634046BDE8F08110B50446206B92
:1029800000F08AFB204600F087FB10BD30B54FF405
:102990007053174800F007042CB1C01D20F0070049
:1029A000134C041B1B1B0246124C22600024114DC9
:1029B0006C60D018083820F007000F4C206000240D
:1029C0000D4D2D686C600C4D2D682C601146441A1D
:1029D0004C60094C24680C60084D4C682C60084D14
:1029E0004C682C604FF00044064D2C6030BD000058
:1029F0001C02002048000020500000205800002049
:102A0000540000205C00002000BFFFF731FF0648A3
:102A100000680128F9D94FF0805004490860BFF3DD
:102A20004F8FBFF36F8FF0E72C01002004ED00E023
:102A30002DE9F04106460D4617469846069C0DB90D
:102A4000246000E02760E66325640121204600F051
:102A50007BFE84F84C80BDE8F0812DE9F05F824672
:102A60000F4690469B460A9E0C9C4FEA8801A52281
:102A7000206BFDF7BCFDA8F10100216B01EB800983
:102A800029F0070909F0070008B9012000E000203B
:102A900050B900BF502080F31188BFF34F8FBFF3B0
:102AA0006F8F00BF00BFFEE7002507E0795D04F1EE
:102AB00034004155785D00B902E06D1C102DF5D34E
:102AC00000BF002143200155072E00D30626E662F1
:102AD000E66400202065201D00F06DFA04F1180066
:102AE00000F069FA2461C6F10700A0616462002069
:102AF000606584F858005A465146484600F0B6F9D9
:102B000020600B9808B10B98046000F000B830BC4E
:102B1000BDE8C09F10B5002407E004EB84010F4A14
:102B200002EB810000F03AFA641C072CF5D30C4844
:102B300000F034FA0B4800F031FA0B4800F02EFA9E
:102B40000A4800F02BFA0A4800F028FA044809491C
:102B5000086004480849086010BD00002C010020EE
:102B6000B8010020CC010020E0010020F401002089
:102B700008020020100000201400002010B50146BB
:102B8000164800E0006803688B42FBD302464368A6
:102B900013448B4204D143684C682344436001468C
:102BA0000A464B6813440468A34211D10C4C0368D5
:102BB0002468A34208D04B680468646823444B60CF
:102BC00003681B680B6005E0054B1B680B6001E0A8
:102BD00003680B60884200D0016010BD48000020EF
:102BE0005000002070B5054600F00EFAA86B08B939
:102BF000012400E0002400F031FA204670BD70B5D9
:102C0000054600F001FAA86BE96B884201D1012466
:102C100000E0002400F022FA204670BD0A4909684D
:102C2000096809B9012100E0002121B14FF0FF310D
:102C3000064A116006E004490968C968C868034A81
:102C40004168116070470000100000203C00002027
:102C50000E480068401C08B9012000E0002050B96F
:102C600000BF502080F31188BFF34F8FBFF36F8FE9
:102C700000BF00BFFEE700BF502080F31188BFF304
:102C80004F8FBFF36F8F00BF00BFFEE760000020D3
:102C900070B5044600F0B8F994F9455010E0606A48
:102CA00008B9012000E0002038B904F1240000F048
:102CB000FDFF18B100F078FA00E003E0681E45B2AD
:102CC000002DECDC00BFFF2084F8450000F0C6F9C1
:102CD00000F09AF994F9445010E0206908B90120F5
:102CE00000E0002048B904F1100000F0DFFF08B157
:102CF00000F05AFA681E45B200E001E0002DECDC5D
:102D000000BFFF2084F8440000F0A8F970BD000067
:102D10002DE9F04104464FF0000800F01BFB464847
:102D2000006808B9FFF732FE4448006820400028D8
:102D30006BD1D4B1083404F00700B0B104F007003F
:102D4000C0F10800044404F0070008B9012000E0C5
:102D5000002050B900BF502080F31188BFF34F8F7F
:102D6000BFF36F8F00BF00BFFEE7002C4DD034488B
:102D70000068844249D8334E3046056801E02E464B
:102D80002D686868A04202D228680028F7D12A4836
:102D90000068854239D0306800F108082868306042
:102DA0006868001B102819D92F1907F0070008B907
:102DB000012000E0002050B900BF502080F31188AE
:102DC000BFF34F8FBFF36F8F00BF00BFFEE7686890
:102DD000001B78606C603846FFF7D0FE18496868C1
:102DE0000968081A16490860084600681649096803
:102DF000884203D212480068134908600F49686886
:102E00000968084368600020286000F09BFF08F014
:102E1000070008B9012000E0002050B900BF502091
:102E200080F31188BFF34F8FBFF36F8F00BF00BFD8
:102E3000FEE74046BDE8F081500000205C00002025
:102E40005400002048000020580000200648006878
:102E500030B10549096801F15000096D491C016054
:102E600001480068704700000C000020001F4FF070
:102E700080730360001F21F001030360001F054BF6
:102E8000036014380260001F6FF0020303602038F3
:102E900070470000512C000870B5054605B970BD9B
:102EA0002C6803E02046616888472468002CF9D12B
:102EB00000BFF4E770B5054605B970BD2C6803E0A6
:102EC0002046A16888472468002CF9D100BFF4E7A8
:102ED00000E0401E0028FCD1704700001CB5002413
:102EE00000200090019019E021460DA0FDF7BEFAE8
:102EF00000235A1E69460E48006800F043FB20B1CB
:102F0000BDF802100BA0FDF7B1FA214604A0FDF7B1
:102F1000ADFA641C4FF47A7000F018F9E4E7000091
:102F200020636F756E74A3BA2564200D0A0000003B
:102F3000700000202072656369766564206D736798
:102F40002025640D0A00000010B5084808490860F3
:102F50004FF4E1304860002105488160C1600161A3
:102F600081610C214161FEF756FD10BD0038014022
:102F7000B400002001460A69D1E901309860D1E926
:102F8000010358605068884201D188685060002071
:102F900008611068401E10601068704700F1080159
:102FA00041604FF0FF31816000F10801C1600161B3
:102FB00000210160704700210161704710B5024691
:102FC0000B685C1C0CB9106907E002F1080000E016
:102FD0004068446824689C42FAD944684C604C6854
:102FE000A160886041600A611468641C146010BDAF
:102FF00042684A6093688B60936859609160086189
:1030000003685B1C0360704700BF502080F3118889
:10301000BFF34F8FBFF36F8F00BF0E480068401C97
:103020000C49086008460068012812D10A48006867
:10303000C0B208B9012000E0002050B900BF502004
:1030400080F31188BFF34F8FBFF36F8F00BF00BFB6
:10305000FEE770476000002004ED00E00D480068C6
:1030600050B900BF502080F31188BFF34F8FBFF3DA
:103070006F8F00BF00BFFEE706480068401E05498D
:1030800008600846006820B9002080F3118800BF5E
:1030900000BF70476000002070B506463546002E20
:1030A0003FD0083D2C461F4960680968084008B1B8
:1030B000012000E0002050B900BF502080F31188AB
:1030C000BFF34F8FBFF36F8F00BF00BFFEE72068D5
:1030D00008B9012000E0002050B900BF502080F363
:1030E0001188BFF34F8FBFF36F8F00BF00BFFEE7A4
:1030F0000C4960680968084098B1206888B9094996
:10310000606809688843606000F024F906496068D7
:1031100009680844044908602046FFF72FFD00F0C5
:1031200011FE70BD5C0000205400002006480068BD
:103130004FF47A71B0FBF1F0401E4FF0E02148618E
:1031400007200861704700000000002070B50446A9
:103150000025D4B11248006808B9012000E0002021
:1031600050B900BF502080F31188BFF34F8FBFF3D9
:103170006F8F00BF00BFFEE700F0ECF80021204693
:10318000FFF7CEFA00F0DEFD05463DB94FF0805066
:1031900004490860BFF34F8FBFF36F8F70BD00000D
:1031A0004400002004ED00E0012001490860704760
:1031B0003000002070B504460D4654B900BF5020C1
:1031C00080F31188BFF34F8FBFF36F8F00BF00BF35
:1031D000FEE70548016818312046FFF7EFFE0121A0
:1031E0002846FFF79DFA70BD0C00002070B505461B
:1031F0002C46002D4BD02649E06A0968C96A8842EE
:1032000045D2A06900F0004028B921480068C06A92
:10321000C0F10700A061E16A01EB81011D4A02EBE8
:1032200081016069884201D1012000E0002050B393
:10323000201DFFF79FFE78B9E06A00EB800015497A
:1032400051F8200040B994F82C1001208840124910
:1032500009688143104801600D480068C06AE06257
:1032600094F82C10012088400B49096808430A494A
:103270000860E16A01EB8101064A02EB8100211D31
:10328000FFF7B6FE03E002480068C06AE06270BD66
:103290000C0000202C0100202400002050B900BFA9
:1032A000502181F31188BFF34F8FBFF36F8F00BFA1
:1032B00000BFFEE7034909680160034909684160EE
:1032C0007047000034000020200000201CB51A4880
:1032D00000210B468022CDE9001018A1194800F00A
:1032E00099FB0446012C15D100BF502080F31188B2
:1032F000BFF34F8FBFF36F8F00BF4FF0FF30124906
:10330000086001201149086000201149086000F0A0
:103310006FF810E0601C08B1012000E0002050B9F7
:1033200000BF502080F31188BFF34F8FBFF36F8F22
:1033300000BF00BFFEE71CBD4000002049444C45D3
:1033400000000000092A00083C000020280000209E
:103350002000002002480068401C014908607047B6
:10336000440000201D48006818B101201C49086075
:1033700032E000201A4908601A480068B0FA80F06C
:10338000C0F11F0101EB8100174A52F8200008B17B
:10339000012000E0002050B900BF502080F31188C8
:1033A000BFF34F8FBFF36F8F00BF00BFFEE701EB8E
:1033B00081020D4B03EB820042685268426000F1CB
:1033C00008024368934202D14268526842604268F0
:1033D000D268064B1A6000BF70470000440000200E
:1033E00030000020240000202C0100200C000020D0
:1033F0001CB5474800684749884201D0012000E0D9
:10340000002050B900BF502080F31188BFF34F8FC8
:10341000BFF36F8F00BF00BFFEE73D4800683D4926
:10342000491E884201D0012000E0002050B900BFB1
:10343000502080F31188BFF34F8FBFF36F8F00BF11
:1034400000BFFEE73449084600780190FF200A4695
:1034500010700846007800909DF8000000F0F00021
:103460009DF80020904201D1012000E0002050B9D9
:1034700000BF502080F31188BFF34F8FBFF36F8FD1
:1034800000BF00BFFEE79DF8000000F05000234A97
:1034900010700720224A106009E021480068401E91
:1034A0001F4A10609DF800004006000E00909DF835
:1034B000000000F080008028EFD01948006800026A
:1034C000174A10601046008800F4E0601060124A4D
:1034D000019810700E482030006840F470000C49CC
:1034E000203108600846006840F070400860FFF72F
:1034F0001DFE00200B490860FCF7C0FE0A4800686A
:1035000040F0404008490860FCF7A8FE00201CBDC0
:1035100000ED00E071C20F4100E400E06400002013
:10352000680000206000002034EF00E02DE9F8433F
:1035300005460E4690460DB1012000E0002050B92E
:1035400000BF502080F31188BFF34F8FBFF36F8F00
:1035500000BF00BFFEE70EB9002701E005FB06F73C
:1035600007F15000FFF7D4FB044644B104F15009C1
:1035700043464A46314628460094FFF759FA20460A
:10358000BDE8F8832DE9FF4782B005460E461F4689
:103590004FF0000A2C4654B900BF502080F3118828
:1035A000BFF34F8FBFF36F8F00BF00BFFEE70EB9B1
:1035B000206C08B9012000E0002050B900BF502065
:1035C00080F31188BFF34F8FBFF36F8F00BF00BF31
:1035D000FEE700F053FA08B9049808B9012000E0AA
:1035E000002050B900BF502080F31188BFF34F8FE7
:1035F000BFF36F8F00BF00BFFEE700BFFFF704FD02
:10360000D4F83890B9F1000F3DD0D4F80C80314691
:103610002046FFF75FF9DFB9A9F10100A063206838
:1036200010B9FFF713FC6060206908B9012000E0C1
:10363000002010BB04F1100000F038FBE8B14FF09F
:10364000805040490860BFF34F8FBFF36F8F14E085
:10365000C4F80C80606A08B9012000E0002060B95D
:1036600004F1240000F022FB38B14FF080503549BE
:103670000860BFF34F8FBFF36F8FFFF7EFFC0120A0
:1036800006B0BDE8F087049818B9FFF7E7FC002002
:10369000F6E7BAF1000F04D16846FFF7FFFD4FF0DF
:1036A000010AFFF7DBFCFFF755FEFFF7ADFC94F9CD
:1036B0004400401C10B9002084F8440094F94500EF
:1036C000401C10B9002084F84500FFF7C7FC04A98E
:1036D000684600F059F940BB2046FFF783FAF0B185
:1036E000206830B9FFF790FC6068FFF77FFDFFF7B7
:1036F000B5FC04F124000499FFF75CFD2046FFF7B8
:10370000C7FA00F01FFB00287FF478AF4FF080501D
:103710000C490860BFF34F8FBFF36F8F6EE72046F1
:10372000FFF7B6FA00F00EFB68E72046FFF7B0FAA5
:1037300000F008FB2046FFF755FA0028EED00020E5
:103740009EE7000004ED00E070B505460E462C46ED
:1037500054B900BF502080F31188BFF34F8FBFF3DF
:103760006F8F00BF00BFFEE7FFF74EFCD4E90F12DA
:10377000206801FB020060600020A0632068A06058
:10378000E06B401E226C216800FB0210E060FF200D
:1037900084F8440084F845009EB9206908B90120E6
:1037A00000E00020A8B904F1100000F07FFA80B119
:1037B0004FF0805009490860BFF34F8FBFF36F8F00
:1037C00007E004F11000FFF7E9FB04F12400FFF724
:1037D000E5FBFFF743FC012070BD000004ED00E0B5
:1037E0002DE9FF4383B0064688461D464FF0000989
:1037F000344654B900BF502080F31188BFF34F8F77
:10380000BFF36F8F00BF00BFFEE7B8F1000F01D11B
:10381000206C08B9012000E0002050B900BF502002
:1038200080F31188BFF34F8FBFF36F8F00BF00BFCE
:10383000FEE7022D02D1E06B012801D1012000E05A
:10384000002050B900BF502080F31188BFF34F8F84
:10385000BFF36F8F00BF00BFFEE700F00FF908B99C
:10386000059808B9012000E0002050B900BF5020A1
:1038700080F31188BFF34F8FBFF36F8F00BF00BF7E
:10388000FEE700BFFFF7C0FBA06BE16B884201D3EE
:10389000022D28D12A4641462046FFF730F8074638
:1038A000606A08B9012000E0002068B904F1240032
:1038B00000F0FCF988B14FF0805032490860BFF346
:1038C0004F8FBFF36F8F08E03FB14FF080502D490D
:1038D0000860BFF34F8FBFF36F8FFFF7BFFB01206F
:1038E00007B0BDE8F083059818B9FFF7B7FB0020D3
:1038F000F6E7B9F1000F04D101A8FFF7CFFC4FF0B4
:103900000109FFF7ABFBFFF725FDFFF77DFB94F9FE
:103910004400401C10B9002084F8440094F945008C
:10392000401C10B9002084F84500FFF797FB05A95B
:1039300001A800F029F8F0B92046FFF760F9A0B11E
:1039400004F110000599FFF735FC2046FFF7A0F9B8
:1039500000F0F8F9002895D14FF08050094908602F
:10396000BFF34F8FBFF36F8F8CE72046FFF790F9BF
:1039700000F0E8F986E72046FFF78AF900F0E2F95F
:103980000020ADE704ED00E070B504460D4654B9E3
:1039900000BF502080F31188BFF34F8FBFF36F8FAC
:1039A00000BF00BFFEE755B900BF502080F311886B
:1039B000BFF34F8FBFF36F8F00BF00BFFEE7FFF76E
:1039C00023FB124803682868401C08B9002619E048
:1039D0000F4920680968884204D06068984201D87D
:1039E00001260FE06068181A2968884209D2286801
:1039F0006168591A401A28602046FFF74FFC0026DC
:103A000000E00126FFF72AFB304670BD20000020B1
:103A1000340000202DE9FF4F85B0804689461746C7
:103A2000DDE912ABB800FFF773F9064656B15C202A
:103A3000FFF76EF904460CB1266304E03046FFF749
:103A40002BFB00E000247CB10020CDE900ABCDE9E8
:103A500002403A4649464046089BFEF7FEFF204694
:103A6000FEF7AAFE012501E04FF0FF35284609B018
:103A700000F000B830BCBDE8C08F000005490968FF
:103A800009B9012005E00449096809B9022000E0EC
:103A90000020704728000020440000202DE9F0415C
:103AA0004FF0000844480068002877D14348006878
:103AB000451C4248056015BB41480068006808B9CC
:103AC000012000E0002050B900BF502080F3118891
:103AD000BFF34F8FBFF36F8F00BF00BFFEE73848C3
:103AE0000768384800683649086036480760364835
:103AF0000068401C34490860FFF790F800BF334865
:103B0000006885423CD300BF2D480068006808B9B2
:103B1000012000E0002020B14FF0FF302B49086069
:103B20002DE027480068C068C4686668B54202D2C4
:103B30002648066023E0201DFFF71CFAA06A18B192
:103B400004F11800FFF716FA94F82C1001208840B1
:103B50001F49096808431E490860E16A01EB8101B9
:103B60001C4A02EB8100211DFFF742FA1A49E06A64
:103B70000968C96A8842C7D34FF00108C4E700BF8B
:103B800015480068C06A00EB8000124951F8200017
:103B9000012801D94FF0010805E0FFE70F48006850
:103BA000401C0E4908600E48006808B14FF001083B
:103BB0004046BDE8F08100004400002020000020C5
:103BC0001000002014000020340000203C000020E1
:103BD000240000202C0100200C0000202C000020DC
:103BE0003000002070B505462C460026002D55D02B
:103BF0002B480068844201D1012000E0002050B928
:103C000000BF502080F31188BFF34F8FBFF36F8F39
:103C100000BF00BFFEE7206D50B900BF502080F309
:103C20001188BFF34F8FBFF36F8F00BF00BFFEE758
:103C3000206D401E2065E16CE06A88422ED0206D28
:103C400060BB201DFFF796F978B9E06A00EB8000B1
:103C5000144951F8200040B994F82C1001208840F4
:103C600011490968814310480160E06CE062E06A34
:103C7000C0F10700A06194F82C10012088400A4987
:103C80000968084308490860E16A01EB8101054AB7
:103C900002EB8100211DFFF7ABF90126304670BD14
:103CA0000C0000202C0100202400002070B50646E6
:103CB000F068C46854B900BF502080F31188BFF386
:103CC0004F8FBFF36F8F00BF00BFFEE704F11800F6
:103CD000FFF750F915480068A8B9201DFFF74AF909
:103CE00094F82C10012088401149096808431049B4
:103CF0000860E16A01EB81010E4A02EB8100211D9F
:103D0000FFF776F904E004F118010B48FFF770F9AA
:103D10000A49E06A0968C96A884204D90125012074
:103D20000749086000E00025284670BD44000020D7
:103D3000240000202C010020E00100200C000020C5
:103D40003000002070B5002400263648006850B9C5
:103D500000BF502080F31188BFF34F8FBFF36F8FE8
:103D600000BF00BFFEE7FFF74FF92E480068401E76
:103D70002C4908600846006800284FD12A4800688E
:103D800000284BD024E02948C068C46804F118001A
:103D9000FFF7F0F8201DFFF7EDF894F82C10012044
:103DA000884023490968084321490860E16A01EB1A
:103DB0008101204A02EB8100211DFFF719F91E49FC
:103DC000E06A0968C96A884202D301201B49086079
:103DD0001648006808B9012000E000200028D2D071
:103DE0000CB1FEF71BFF1648056865B100BFFFF771
:103DF00055FE10B10120114908606D1E002DF6D14D
:103E000000200F4908600D48006838B101263007CE
:103E10000C490860BFF34F8FBFF36F8FFFF71EF998
:103E2000304670BD440000201C000020E00100204E
:103E3000240000202C0100200C0000203000002075
:103E40002C00002004ED00E04FF04070E1EE100A7D
:103E500070470000000000000000000001020304A1
:103E6000060708090000000001020304A086010003
:103E7000400D0300801A060000350C0040420F0080
:103E800080841E0000093D0000127A000024F40026
:103E900000366E010048E801006CDC02BC3E000800
:103EA0000000002074000000C8010008303F000836
:103EB000740000200C440000E401000800093D00EB
:103EC00000000000000000000000000000000000F2
:103ED00000000000000000000000000000000000E2
:103EE00000000000000000000000000000000000D2
:103EF00000000000000000000000000000000000C2
:103F000000000000000000000000000000000000B1
:103F1000000000000000000000000000AAAAAAAAF9
:103F20000000000000000000000000000000000091
:040000050800018D61
:00000001FF
